{
  "contractName": "Banco",
  "abi": [
    {
      "inputs": [],
      "stateMutability": "nonpayable",
      "type": "constructor"
    },
    {
      "inputs": [],
      "name": "owner",
      "outputs": [
        {
          "internalType": "address",
          "name": "",
          "type": "address"
        }
      ],
      "stateMutability": "view",
      "type": "function",
      "constant": true
    },
    {
      "inputs": [],
      "name": "Sacar",
      "outputs": [],
      "stateMutability": "payable",
      "type": "function",
      "payable": true
    }
  ],
  "bytecode": "0x608060405234801561001057600080fd5b50326000806101000a81548173ffffffffffffffffffffffffffffffffffffffff021916908373ffffffffffffffffffffffffffffffffffffffff160217905550610385806100606000396000f3fe6080604052600436106100295760003560e01c80638da5cb5b1461002e578063fd21616314610059575b600080fd5b34801561003a57600080fd5b50610043610063565b6040516100509190610205565b60405180910390f35b610061610087565b005b60008054906101000a900473ffffffffffffffffffffffffffffffffffffffff1681565b3273ffffffffffffffffffffffffffffffffffffffff1660008054906101000a900473ffffffffffffffffffffffffffffffffffffffff1673ffffffffffffffffffffffffffffffffffffffff1614610115576040517f08c379a000000000000000000000000000000000000000000000000000000000815260040161010c9061027d565b60405180910390fd5b60003373ffffffffffffffffffffffffffffffffffffffff164760405161013b906102ce565b60006040518083038185875af1925050503d8060008114610178576040519150601f19603f3d011682016040523d82523d6000602084013e61017d565b606091505b50509050806101c1576040517f08c379a00000000000000000000000000000000000000000000000000000000081526004016101b89061032f565b60405180910390fd5b50565b600073ffffffffffffffffffffffffffffffffffffffff82169050919050565b60006101ef826101c4565b9050919050565b6101ff816101e4565b82525050565b600060208201905061021a60008301846101f6565b92915050565b600082825260208201905092915050565b7f6e616f206568206f20646f6e6f00000000000000000000000000000000000000600082015250565b6000610267600d83610220565b915061027282610231565b602082019050919050565b600060208201905081810360008301526102968161025a565b9050919050565b600081905092915050565b50565b60006102b860008361029d565b91506102c3826102a8565b600082019050919050565b60006102d9826102ab565b9150819050919050565b7f43616c6c206661696c6564000000000000000000000000000000000000000000600082015250565b6000610319600b83610220565b9150610324826102e3565b602082019050919050565b600060208201905081810360008301526103488161030c565b905091905056fea264697066735822122063795fafeaef95408ed0753bcc599ce693226a7f2fcbb060aa755e9000a100f664736f6c63430008110033",
  "immutableReferences": {},
  "source": "// SPDX-License-Identifier: MIT\npragma solidity ^0.8.2;\n\ncontract Banco {\n    address public owner;\n\n    constructor() {\n        owner = tx.origin;\n    }\n\n    function Sacar() public payable {\n        require(owner == tx.origin, \"nao eh o dono\");\n\n        (bool callSuccess, ) = payable(msg.sender).call{\n            value: address(this).balance\n        }(\"\");\n\n        require(callSuccess, \"Call failed\");\n    }\n}\n",
  "sourcePath": "/home/mont/Desktop/phising/contracts/Banco.sol",
  "compiler": {
    "name": "solc",
    "version": "0.8.17+commit.8df45f5f.Emscripten.clang"
  },
  "schemaVersion": "3.4.3",
  "updatedAt": "2022-09-26T19:38:09.335Z",
  "networkType": "ethereum",
  "devdoc": {
    "kind": "dev",
    "methods": {},
    "version": 1
  },
  "userdoc": {
    "kind": "user",
    "methods": {},
    "version": 1
  }
}