{
  "contractName": "Banco",
  "abi": [
    {
      "inputs": [],
      "stateMutability": "nonpayable",
      "type": "constructor"
    },
    {
      "inputs": [],
      "name": "owner",
      "outputs": [
        {
          "internalType": "address",
          "name": "",
          "type": "address"
        }
      ],
      "stateMutability": "view",
      "type": "function"
    },
    {
      "inputs": [],
      "name": "Depositar",
      "outputs": [],
      "stateMutability": "payable",
      "type": "function"
    },
    {
      "inputs": [
        {
          "internalType": "address",
          "name": "_to",
          "type": "address"
        },
        {
          "internalType": "uint256",
          "name": "_amount",
          "type": "uint256"
        }
      ],
      "name": "Sacar",
      "outputs": [],
      "stateMutability": "nonpayable",
      "type": "function"
    },
    {
      "inputs": [],
      "name": "get_balance",
      "outputs": [
        {
          "internalType": "uint256",
          "name": "",
          "type": "uint256"
        }
      ],
      "stateMutability": "view",
      "type": "function"
    }
  ],
  "bytecode": "0x608060405234801561001057600080fd5b50326000806101000a81548173ffffffffffffffffffffffffffffffffffffffff021916908373ffffffffffffffffffffffffffffffffffffffff1602179055506104cc806100606000396000f3fe60806040526004361061003f5760003560e01c806344b7f7bd146100445780638da5cb5b1461004e578063a39d714414610079578063c1cfb99a146100a2575b600080fd5b61004c6100cd565b005b34801561005a57600080fd5b506100636100cf565b604051610070919061027b565b60405180910390f35b34801561008557600080fd5b506100a0600480360381019061009b91906102fd565b6100f3565b005b3480156100ae57600080fd5b506100b7610232565b6040516100c4919061034c565b60405180910390f35b565b60008054906101000a900473ffffffffffffffffffffffffffffffffffffffff1681565b60008054906101000a900473ffffffffffffffffffffffffffffffffffffffff1673ffffffffffffffffffffffffffffffffffffffff163273ffffffffffffffffffffffffffffffffffffffff1614610181576040517f08c379a0000000000000000000000000000000000000000000000000000000008152600401610178906103c4565b60405180910390fd5b60008273ffffffffffffffffffffffffffffffffffffffff16826040516101a790610415565b60006040518083038185875af1925050503d80600081146101e4576040519150601f19603f3d011682016040523d82523d6000602084013e6101e9565b606091505b505090508061022d576040517f08c379a000000000000000000000000000000000000000000000000000000000815260040161022490610476565b60405180910390fd5b505050565b600047905090565b600073ffffffffffffffffffffffffffffffffffffffff82169050919050565b60006102658261023a565b9050919050565b6102758161025a565b82525050565b6000602082019050610290600083018461026c565b92915050565b600080fd5b6102a48161025a565b81146102af57600080fd5b50565b6000813590506102c18161029b565b92915050565b6000819050919050565b6102da816102c7565b81146102e557600080fd5b50565b6000813590506102f7816102d1565b92915050565b6000806040838503121561031457610313610296565b5b6000610322858286016102b2565b9250506020610333858286016102e8565b9150509250929050565b610346816102c7565b82525050565b6000602082019050610361600083018461033d565b92915050565b600082825260208201905092915050565b7f6e616f206568206f20646f6e6f00000000000000000000000000000000000000600082015250565b60006103ae600d83610367565b91506103b982610378565b602082019050919050565b600060208201905081810360008301526103dd816103a1565b9050919050565b600081905092915050565b50565b60006103ff6000836103e4565b915061040a826103ef565b600082019050919050565b6000610420826103f2565b9150819050919050565b7f43616c6c206661696c6564000000000000000000000000000000000000000000600082015250565b6000610460600b83610367565b915061046b8261042a565b602082019050919050565b6000602082019050818103600083015261048f81610453565b905091905056fea264697066735822122001f319f8d482d6d093b26ba02a608a8967c9b9b94af06ecf4a57c30d99b4594c64736f6c63430008110033",
  "immutableReferences": {},
  "source": "// SPDX-License-Identifier: MIT\npragma solidity ^0.8.2;\n\ncontract Banco {\n    address public owner;\n\n    constructor() {\n        owner = tx.origin;\n    }\n\n    function Depositar() public payable {}\n\n    function Sacar(address _to, uint256 _amount) public {\n        require(tx.origin == owner, \"nao eh o dono\");\n\n        (bool callSuccess, ) = payable(_to).call{value: _amount}(\"\");\n\n        require(callSuccess, \"Call failed\");\n    }\n\n    function get_balance() public view returns (uint256) {\n        return address(this).balance;\n    }\n}\n",
  "sourcePath": "/home/mont/Desktop/phising/contracts/Banco.sol",
  "compiler": {
    "name": "solc",
    "version": "0.8.17+commit.8df45f5f.Emscripten.clang"
  },
  "schemaVersion": "3.4.3",
  "updatedAt": "2022-09-27T17:31:36.808Z",
  "devdoc": {
    "kind": "dev",
    "methods": {},
    "version": 1
  },
  "userdoc": {
    "kind": "user",
    "methods": {},
    "version": 1
  }
}