{
  "contractName": "Ladrao",
  "abi": [
    {
      "inputs": [
        {
          "internalType": "address",
          "name": "_endereco_alvo",
          "type": "address"
        }
      ],
      "stateMutability": "nonpayable",
      "type": "constructor"
    },
    {
      "inputs": [],
      "name": "owner",
      "outputs": [
        {
          "internalType": "address",
          "name": "",
          "type": "address"
        }
      ],
      "stateMutability": "view",
      "type": "function",
      "constant": true
    },
    {
      "inputs": [],
      "name": "Sacar",
      "outputs": [],
      "stateMutability": "payable",
      "type": "function",
      "payable": true
    }
  ],
  "bytecode": "0x608060405234801561001057600080fd5b506040516102b53803806102b5833981810160405281019061003291906100dc565b80600160006101000a81548173ffffffffffffffffffffffffffffffffffffffff021916908373ffffffffffffffffffffffffffffffffffffffff16021790555050610109565b600080fd5b600073ffffffffffffffffffffffffffffffffffffffff82169050919050565b60006100a98261007e565b9050919050565b6100b98161009e565b81146100c457600080fd5b50565b6000815190506100d6816100b0565b92915050565b6000602082840312156100f2576100f1610079565b5b6000610100848285016100c7565b91505092915050565b61019d806101186000396000f3fe6080604052600436106100295760003560e01c80638da5cb5b1461002e578063fd21616314610059575b600080fd5b34801561003a57600080fd5b50610043610063565b604051610050919061014c565b60405180910390f35b610061610087565b005b60008054906101000a900473ffffffffffffffffffffffffffffffffffffffff1681565b600160009054906101000a900473ffffffffffffffffffffffffffffffffffffffff1673ffffffffffffffffffffffffffffffffffffffff1663fd2161636040518163ffffffff1660e01b8152600401600060405180830381600087803b1580156100f157600080fd5b505af1158015610105573d6000803e3d6000fd5b50505050565b600073ffffffffffffffffffffffffffffffffffffffff82169050919050565b60006101368261010b565b9050919050565b6101468161012b565b82525050565b6000602082019050610161600083018461013d565b9291505056fea2646970667358221220bd21bc59836f56e97565d33ddddeab2a219c26816f066b4481a81f036383ae5b64736f6c63430008110033",
  "immutableReferences": {},
  "source": "// SPDX-License-Identifier: MIT\npragma solidity ^0.8.2;\n\ninterface Banco {\n    function Sacar() external payable;\n}\n\ncontract Ladrao {\n    address public owner;\n\n    Banco banco;\n\n    constructor(address _endereco_alvo) {\n        banco = Banco(_endereco_alvo);\n    }\n\n    function Sacar() public payable {\n        banco.Sacar();\n    }\n}\n",
  "sourcePath": "/home/mont/Desktop/phising/contracts/Ladrao.sol",
  "compiler": {
    "name": "solc",
    "version": "0.8.17+commit.8df45f5f.Emscripten.clang"
  },
  "schemaVersion": "3.4.3",
  "updatedAt": "2022-09-26T19:07:25.120Z",
  "networkType": "ethereum",
  "devdoc": {
    "kind": "dev",
    "methods": {},
    "version": 1
  },
  "userdoc": {
    "kind": "user",
    "methods": {},
    "version": 1
  }
}